{
  "contractName": "TimelessNFT",
  "abi": [
    {
      "inputs": [
        {
          "internalType": "string",
          "name": "_name",
          "type": "string"
        },
        {
          "internalType": "string",
          "name": "_symbol",
          "type": "string"
        },
        {
          "internalType": "uint256",
          "name": "_royaltyFee",
          "type": "uint256"
        },
        {
          "internalType": "address",
          "name": "_artist",
          "type": "address"
        }
      ],
      "stateMutability": "nonpayable",
      "type": "constructor"
    },
    {
      "anonymous": false,
      "inputs": [
        {
          "indexed": true,
          "internalType": "address",
          "name": "owner",
          "type": "address"
        },
        {
          "indexed": true,
          "internalType": "address",
          "name": "approved",
          "type": "address"
        },
        {
          "indexed": true,
          "internalType": "uint256",
          "name": "tokenId",
          "type": "uint256"
        }
      ],
      "name": "Approval",
      "type": "event"
    },
    {
      "anonymous": false,
      "inputs": [
        {
          "indexed": true,
          "internalType": "address",
          "name": "owner",
          "type": "address"
        },
        {
          "indexed": true,
          "internalType": "address",
          "name": "operator",
          "type": "address"
        },
        {
          "indexed": false,
          "internalType": "bool",
          "name": "approved",
          "type": "bool"
        }
      ],
      "name": "ApprovalForAll",
      "type": "event"
    },
    {
      "anonymous": false,
      "inputs": [
        {
          "indexed": true,
          "internalType": "address",
          "name": "previousOwner",
          "type": "address"
        },
        {
          "indexed": true,
          "internalType": "address",
          "name": "newOwner",
          "type": "address"
        }
      ],
      "name": "OwnershipTransferred",
      "type": "event"
    },
    {
      "anonymous": false,
      "inputs": [
        {
          "indexed": false,
          "internalType": "uint256",
          "name": "id",
          "type": "uint256"
        },
        {
          "indexed": true,
          "internalType": "address",
          "name": "owner",
          "type": "address"
        },
        {
          "indexed": false,
          "internalType": "uint256",
          "name": "cost",
          "type": "uint256"
        },
        {
          "indexed": false,
          "internalType": "string",
          "name": "metadataURI",
          "type": "string"
        },
        {
          "indexed": false,
          "internalType": "uint256",
          "name": "timestamp",
          "type": "uint256"
        }
      ],
      "name": "Sale",
      "type": "event"
    },
    {
      "anonymous": false,
      "inputs": [
        {
          "indexed": true,
          "internalType": "address",
          "name": "from",
          "type": "address"
        },
        {
          "indexed": true,
          "internalType": "address",
          "name": "to",
          "type": "address"
        },
        {
          "indexed": true,
          "internalType": "uint256",
          "name": "tokenId",
          "type": "uint256"
        }
      ],
      "name": "Transfer",
      "type": "event"
    },
    {
      "inputs": [
        {
          "internalType": "address",
          "name": "to",
          "type": "address"
        },
        {
          "internalType": "uint256",
          "name": "tokenId",
          "type": "uint256"
        }
      ],
      "name": "approve",
      "outputs": [],
      "stateMutability": "nonpayable",
      "type": "function"
    },
    {
      "inputs": [],
      "name": "artist",
      "outputs": [
        {
          "internalType": "address",
          "name": "",
          "type": "address"
        }
      ],
      "stateMutability": "view",
      "type": "function",
      "constant": true
    },
    {
      "inputs": [
        {
          "internalType": "address",
          "name": "owner",
          "type": "address"
        }
      ],
      "name": "balanceOf",
      "outputs": [
        {
          "internalType": "uint256",
          "name": "",
          "type": "uint256"
        }
      ],
      "stateMutability": "view",
      "type": "function",
      "constant": true
    },
    {
      "inputs": [],
      "name": "cost",
      "outputs": [
        {
          "internalType": "uint256",
          "name": "",
          "type": "uint256"
        }
      ],
      "stateMutability": "view",
      "type": "function",
      "constant": true
    },
    {
      "inputs": [
        {
          "internalType": "uint256",
          "name": "tokenId",
          "type": "uint256"
        }
      ],
      "name": "getApproved",
      "outputs": [
        {
          "internalType": "address",
          "name": "",
          "type": "address"
        }
      ],
      "stateMutability": "view",
      "type": "function",
      "constant": true
    },
    {
      "inputs": [
        {
          "internalType": "uint256",
          "name": "",
          "type": "uint256"
        }
      ],
      "name": "holderOf",
      "outputs": [
        {
          "internalType": "address",
          "name": "",
          "type": "address"
        }
      ],
      "stateMutability": "view",
      "type": "function",
      "constant": true
    },
    {
      "inputs": [
        {
          "internalType": "address",
          "name": "owner",
          "type": "address"
        },
        {
          "internalType": "address",
          "name": "operator",
          "type": "address"
        }
      ],
      "name": "isApprovedForAll",
      "outputs": [
        {
          "internalType": "bool",
          "name": "",
          "type": "bool"
        }
      ],
      "stateMutability": "view",
      "type": "function",
      "constant": true
    },
    {
      "inputs": [
        {
          "internalType": "uint256",
          "name": "",
          "type": "uint256"
        }
      ],
      "name": "minted",
      "outputs": [
        {
          "internalType": "uint256",
          "name": "id",
          "type": "uint256"
        },
        {
          "internalType": "address",
          "name": "owner",
          "type": "address"
        },
        {
          "internalType": "uint256",
          "name": "cost",
          "type": "uint256"
        },
        {
          "internalType": "string",
          "name": "title",
          "type": "string"
        },
        {
          "internalType": "string",
          "name": "description",
          "type": "string"
        },
        {
          "internalType": "string",
          "name": "metadataURI",
          "type": "string"
        },
        {
          "internalType": "uint256",
          "name": "timestamp",
          "type": "uint256"
        }
      ],
      "stateMutability": "view",
      "type": "function",
      "constant": true
    },
    {
      "inputs": [],
      "name": "name",
      "outputs": [
        {
          "internalType": "string",
          "name": "",
          "type": "string"
        }
      ],
      "stateMutability": "view",
      "type": "function",
      "constant": true
    },
    {
      "inputs": [],
      "name": "owner",
      "outputs": [
        {
          "internalType": "address",
          "name": "",
          "type": "address"
        }
      ],
      "stateMutability": "view",
      "type": "function",
      "constant": true
    },
    {
      "inputs": [
        {
          "internalType": "uint256",
          "name": "tokenId",
          "type": "uint256"
        }
      ],
      "name": "ownerOf",
      "outputs": [
        {
          "internalType": "address",
          "name": "",
          "type": "address"
        }
      ],
      "stateMutability": "view",
      "type": "function",
      "constant": true
    },
    {
      "inputs": [],
      "name": "renounceOwnership",
      "outputs": [],
      "stateMutability": "nonpayable",
      "type": "function"
    },
    {
      "inputs": [],
      "name": "royaltyFee",
      "outputs": [
        {
          "internalType": "uint256",
          "name": "",
          "type": "uint256"
        }
      ],
      "stateMutability": "view",
      "type": "function",
      "constant": true
    },
    {
      "inputs": [
        {
          "internalType": "address",
          "name": "from",
          "type": "address"
        },
        {
          "internalType": "address",
          "name": "to",
          "type": "address"
        },
        {
          "internalType": "uint256",
          "name": "tokenId",
          "type": "uint256"
        }
      ],
      "name": "safeTransferFrom",
      "outputs": [],
      "stateMutability": "nonpayable",
      "type": "function"
    },
    {
      "inputs": [
        {
          "internalType": "address",
          "name": "from",
          "type": "address"
        },
        {
          "internalType": "address",
          "name": "to",
          "type": "address"
        },
        {
          "internalType": "uint256",
          "name": "tokenId",
          "type": "uint256"
        },
        {
          "internalType": "bytes",
          "name": "data",
          "type": "bytes"
        }
      ],
      "name": "safeTransferFrom",
      "outputs": [],
      "stateMutability": "nonpayable",
      "type": "function"
    },
    {
      "inputs": [
        {
          "internalType": "address",
          "name": "operator",
          "type": "address"
        },
        {
          "internalType": "bool",
          "name": "approved",
          "type": "bool"
        }
      ],
      "name": "setApprovalForAll",
      "outputs": [],
      "stateMutability": "nonpayable",
      "type": "function"
    },
    {
      "inputs": [],
      "name": "supply",
      "outputs": [
        {
          "internalType": "uint256",
          "name": "",
          "type": "uint256"
        }
      ],
      "stateMutability": "view",
      "type": "function",
      "constant": true
    },
    {
      "inputs": [
        {
          "internalType": "bytes4",
          "name": "interfaceId",
          "type": "bytes4"
        }
      ],
      "name": "supportsInterface",
      "outputs": [
        {
          "internalType": "bool",
          "name": "",
          "type": "bool"
        }
      ],
      "stateMutability": "view",
      "type": "function",
      "constant": true
    },
    {
      "inputs": [],
      "name": "symbol",
      "outputs": [
        {
          "internalType": "string",
          "name": "",
          "type": "string"
        }
      ],
      "stateMutability": "view",
      "type": "function",
      "constant": true
    },
    {
      "inputs": [
        {
          "internalType": "uint256",
          "name": "index",
          "type": "uint256"
        }
      ],
      "name": "tokenByIndex",
      "outputs": [
        {
          "internalType": "uint256",
          "name": "",
          "type": "uint256"
        }
      ],
      "stateMutability": "view",
      "type": "function",
      "constant": true
    },
    {
      "inputs": [
        {
          "internalType": "address",
          "name": "owner",
          "type": "address"
        },
        {
          "internalType": "uint256",
          "name": "index",
          "type": "uint256"
        }
      ],
      "name": "tokenOfOwnerByIndex",
      "outputs": [
        {
          "internalType": "uint256",
          "name": "",
          "type": "uint256"
        }
      ],
      "stateMutability": "view",
      "type": "function",
      "constant": true
    },
    {
      "inputs": [
        {
          "internalType": "uint256",
          "name": "tokenId",
          "type": "uint256"
        }
      ],
      "name": "tokenURI",
      "outputs": [
        {
          "internalType": "string",
          "name": "",
          "type": "string"
        }
      ],
      "stateMutability": "view",
      "type": "function",
      "constant": true
    },
    {
      "inputs": [],
      "name": "totalSupply",
      "outputs": [
        {
          "internalType": "uint256",
          "name": "",
          "type": "uint256"
        }
      ],
      "stateMutability": "view",
      "type": "function",
      "constant": true
    },
    {
      "inputs": [],
      "name": "totalTx",
      "outputs": [
        {
          "internalType": "uint256",
          "name": "",
          "type": "uint256"
        }
      ],
      "stateMutability": "view",
      "type": "function",
      "constant": true
    },
    {
      "inputs": [
        {
          "internalType": "uint256",
          "name": "",
          "type": "uint256"
        }
      ],
      "name": "transactions",
      "outputs": [
        {
          "internalType": "uint256",
          "name": "id",
          "type": "uint256"
        },
        {
          "internalType": "address",
          "name": "owner",
          "type": "address"
        },
        {
          "internalType": "uint256",
          "name": "cost",
          "type": "uint256"
        },
        {
          "internalType": "string",
          "name": "title",
          "type": "string"
        },
        {
          "internalType": "string",
          "name": "description",
          "type": "string"
        },
        {
          "internalType": "string",
          "name": "metadataURI",
          "type": "string"
        },
        {
          "internalType": "uint256",
          "name": "timestamp",
          "type": "uint256"
        }
      ],
      "stateMutability": "view",
      "type": "function",
      "constant": true
    },
    {
      "inputs": [
        {
          "internalType": "address",
          "name": "from",
          "type": "address"
        },
        {
          "internalType": "address",
          "name": "to",
          "type": "address"
        },
        {
          "internalType": "uint256",
          "name": "tokenId",
          "type": "uint256"
        }
      ],
      "name": "transferFrom",
      "outputs": [],
      "stateMutability": "nonpayable",
      "type": "function"
    },
    {
      "inputs": [
        {
          "internalType": "address",
          "name": "newOwner",
          "type": "address"
        }
      ],
      "name": "transferOwnership",
      "outputs": [],
      "stateMutability": "nonpayable",
      "type": "function"
    },
    {
      "inputs": [
        {
          "internalType": "string",
          "name": "title",
          "type": "string"
        },
        {
          "internalType": "string",
          "name": "description",
          "type": "string"
        },
        {
          "internalType": "string",
          "name": "metadataURI",
          "type": "string"
        },
        {
          "internalType": "uint256",
          "name": "salesPrice",
          "type": "uint256"
        }
      ],
      "name": "payToMint",
      "outputs": [],
      "stateMutability": "payable",
      "type": "function",
      "payable": true
    },
    {
      "inputs": [
        {
          "internalType": "uint256",
          "name": "id",
          "type": "uint256"
        }
      ],
      "name": "payToBuy",
      "outputs": [],
      "stateMutability": "payable",
      "type": "function",
      "payable": true
    },
    {
      "inputs": [
        {
          "internalType": "uint256",
          "name": "id",
          "type": "uint256"
        },
        {
          "internalType": "uint256",
          "name": "newPrice",
          "type": "uint256"
        }
      ],
      "name": "changePrice",
      "outputs": [
        {
          "internalType": "bool",
          "name": "",
          "type": "bool"
        }
      ],
      "stateMutability": "nonpayable",
      "type": "function"
    },
    {
      "inputs": [],
      "name": "getAllNFTs",
      "outputs": [
        {
          "components": [
            {
              "internalType": "uint256",
              "name": "id",
              "type": "uint256"
            },
            {
              "internalType": "address",
              "name": "owner",
              "type": "address"
            },
            {
              "internalType": "uint256",
              "name": "cost",
              "type": "uint256"
            },
            {
              "internalType": "string",
              "name": "title",
              "type": "string"
            },
            {
              "internalType": "string",
              "name": "description",
              "type": "string"
            },
            {
              "internalType": "string",
              "name": "metadataURI",
              "type": "string"
            },
            {
              "internalType": "uint256",
              "name": "timestamp",
              "type": "uint256"
            }
          ],
          "internalType": "struct TimelessNFT.TransactionStruct[]",
          "name": "",
          "type": "tuple[]"
        }
      ],
      "stateMutability": "view",
      "type": "function",
      "constant": true
    },
    {
      "inputs": [
        {
          "internalType": "uint256",
          "name": "id",
          "type": "uint256"
        }
      ],
      "name": "getNFT",
      "outputs": [
        {
          "components": [
            {
              "internalType": "uint256",
              "name": "id",
              "type": "uint256"
            },
            {
              "internalType": "address",
              "name": "owner",
              "type": "address"
            },
            {
              "internalType": "uint256",
              "name": "cost",
              "type": "uint256"
            },
            {
              "internalType": "string",
              "name": "title",
              "type": "string"
            },
            {
              "internalType": "string",
              "name": "description",
              "type": "string"
            },
            {
              "internalType": "string",
              "name": "metadataURI",
              "type": "string"
            },
            {
              "internalType": "uint256",
              "name": "timestamp",
              "type": "uint256"
            }
          ],
          "internalType": "struct TimelessNFT.TransactionStruct",
          "name": "",
          "type": "tuple"
        }
      ],
      "stateMutability": "view",
      "type": "function",
      "constant": true
    },
    {
      "inputs": [],
      "name": "getAllTransactions",
      "outputs": [
        {
          "components": [
            {
              "internalType": "uint256",
              "name": "id",
              "type": "uint256"
            },
            {
              "internalType": "address",
              "name": "owner",
              "type": "address"
            },
            {
              "internalType": "uint256",
              "name": "cost",
              "type": "uint256"
            },
            {
              "internalType": "string",
              "name": "title",
              "type": "string"
            },
            {
              "internalType": "string",
              "name": "description",
              "type": "string"
            },
            {
              "internalType": "string",
              "name": "metadataURI",
              "type": "string"
            },
            {
              "internalType": "uint256",
              "name": "timestamp",
              "type": "uint256"
            }
          ],
          "internalType": "struct TimelessNFT.TransactionStruct[]",
          "name": "",
          "type": "tuple[]"
        }
      ],
      "stateMutability": "view",
      "type": "function",
      "constant": true
    }
  ],
  "bytecode": "0x60806040526000600f556000601055662386f26fc100006011553480156200002657600080fd5b5060405162005fa638038062005fa683398181016040528101906200004c9190620004af565b8383816000908051906020019062000066929190620001c2565b5080600190805190602001906200007f929190620001c2565b505050620000a262000096620000f460201b60201c565b620000fc60201b60201c565b81600e8190555080600d60006101000a81548173ffffffffffffffffffffffffffffffffffffffff021916908373ffffffffffffffffffffffffffffffffffffffff16021790555050505050620005c4565b600033905090565b6000600a60009054906101000a900473ffffffffffffffffffffffffffffffffffffffff16905081600a60006101000a81548173ffffffffffffffffffffffffffffffffffffffff021916908373ffffffffffffffffffffffffffffffffffffffff1602179055508173ffffffffffffffffffffffffffffffffffffffff168173ffffffffffffffffffffffffffffffffffffffff167f8be0079c531659141344cd1fd0a4f28419497f9722a3daafe3b4186f6b6457e060405160405180910390a35050565b828054620001d0906200058e565b90600052602060002090601f016020900481019282620001f4576000855562000240565b82601f106200020f57805160ff191683800117855562000240565b8280016001018555821562000240579182015b828111156200023f57825182559160200191906001019062000222565b5b5090506200024f919062000253565b5090565b5b808211156200026e57600081600090555060010162000254565b5090565b6000604051905090565b600080fd5b600080fd5b600080fd5b600080fd5b6000601f19601f8301169050919050565b7f4e487b7100000000000000000000000000000000000000000000000000000000600052604160045260246000fd5b620002db8262000290565b810181811067ffffffffffffffff82111715620002fd57620002fc620002a1565b5b80604052505050565b60006200031262000272565b9050620003208282620002d0565b919050565b600067ffffffffffffffff821115620003435762000342620002a1565b5b6200034e8262000290565b9050602081019050919050565b60005b838110156200037b5780820151818401526020810190506200035e565b838111156200038b576000848401525b50505050565b6000620003a8620003a28462000325565b62000306565b905082815260208101848484011115620003c757620003c66200028b565b5b620003d48482856200035b565b509392505050565b600082601f830112620003f457620003f362000286565b5b81516200040684826020860162000391565b91505092915050565b6000819050919050565b62000424816200040f565b81146200043057600080fd5b50565b600081519050620004448162000419565b92915050565b600073ffffffffffffffffffffffffffffffffffffffff82169050919050565b600062000477826200044a565b9050919050565b62000489816200046a565b81146200049557600080fd5b50565b600081519050620004a9816200047e565b92915050565b60008060008060808587031215620004cc57620004cb6200027c565b5b600085015167ffffffffffffffff811115620004ed57620004ec62000281565b5b620004fb87828801620003dc565b945050602085015167ffffffffffffffff8111156200051f576200051e62000281565b5b6200052d87828801620003dc565b9350506040620005408782880162000433565b9250506060620005538782880162000498565b91505092959194509250565b7f4e487b7100000000000000000000000000000000000000000000000000000000600052602260045260246000fd5b60006002820490506001821680620005a757607f821691505b60208210811415620005be57620005bd6200055f565b5b50919050565b6159d280620005d46000396000f3fe6080604052600436106101ee5760003560e01c8063715018a61161010d578063a22cb465116100a0578063c87b56dd1161006f578063c87b56dd1461072b578063dbacc23714610768578063e0391b09146107a5578063e985e9c5146107d0578063f2fde38b1461080d576101ee565b8063a22cb46514610671578063b3de019c1461069a578063b88d4fde146106d7578063b8997a9714610700576101ee565b80638da5cb5b116100dc5780638da5cb5b146105bc57806395d89b41146105e75780639ace38c2146106125780639ba4b01714610655576101ee565b8063715018a61461051b5780637220cf3914610532578063799c0c1e1461055d5780637dc0bf3f14610579576101ee565b806327506f53116101855780634f6ccce7116101545780634f6ccce714610427578063576f7ea7146104645780636352211e146104a157806370a08231146104de576101ee565b806327506f531461036b5780632f745c591461039657806342842e0e146103d357806343bc1612146103fc576101ee565b8063095ea7b3116101c1578063095ea7b3146102c357806313faede6146102ec57806318160ddd1461031757806323b872dd14610342576101ee565b806301ffc9a7146101f3578063047fc9aa1461023057806306fdde031461025b578063081812fc14610286575b600080fd5b3480156101ff57600080fd5b5061021a60048036038101906102159190613f1b565b610836565b6040516102279190613f63565b60405180910390f35b34801561023c57600080fd5b506102456108b0565b6040516102529190613f97565b60405180910390f35b34801561026757600080fd5b506102706108b6565b60405161027d919061404b565b60405180910390f35b34801561029257600080fd5b506102ad60048036038101906102a89190614099565b610948565b6040516102ba9190614107565b60405180910390f35b3480156102cf57600080fd5b506102ea60048036038101906102e5919061414e565b61098e565b005b3480156102f857600080fd5b50610301610aa6565b60405161030e9190613f97565b60405180910390f35b34801561032357600080fd5b5061032c610aac565b6040516103399190613f97565b60405180910390f35b34801561034e57600080fd5b506103696004803603810190610364919061418e565b610ab9565b005b34801561037757600080fd5b50610380610b19565b60405161038d91906143b5565b60405180910390f35b3480156103a257600080fd5b506103bd60048036038101906103b8919061414e565b610da2565b6040516103ca9190613f97565b60405180910390f35b3480156103df57600080fd5b506103fa60048036038101906103f5919061418e565b610e47565b005b34801561040857600080fd5b50610411610e67565b60405161041e9190614107565b60405180910390f35b34801561043357600080fd5b5061044e60048036038101906104499190614099565b610e8d565b60405161045b9190613f97565b60405180910390f35b34801561047057600080fd5b5061048b60048036038101906104869190614099565b610efe565b6040516104989190614481565b60405180910390f35b3480156104ad57600080fd5b506104c860048036038101906104c39190614099565b6111c4565b6040516104d59190614107565b60405180910390f35b3480156104ea57600080fd5b50610505600480360381019061050091906144a3565b61124b565b6040516105129190613f97565b60405180910390f35b34801561052757600080fd5b50610530611303565b005b34801561053e57600080fd5b50610547611317565b6040516105549190613f97565b60405180910390f35b61057760048036038101906105729190614605565b61131d565b005b34801561058557600080fd5b506105a0600480360381019061059b9190614099565b61167a565b6040516105b397969594939291906146c0565b60405180910390f35b3480156105c857600080fd5b506105d1611884565b6040516105de9190614107565b60405180910390f35b3480156105f357600080fd5b506105fc6118ae565b604051610609919061404b565b60405180910390f35b34801561061e57600080fd5b5061063960048036038101906106349190614099565b611940565b60405161064c97969594939291906146c0565b60405180910390f35b61066f600480360381019061066a9190614099565b611b4a565b005b34801561067d57600080fd5b5061069860048036038101906106939190614770565b61224f565b005b3480156106a657600080fd5b506106c160048036038101906106bc91906147b0565b612265565b6040516106ce9190613f63565b60405180910390f35b3480156106e357600080fd5b506106fe60048036038101906106f99190614891565b6123fc565b005b34801561070c57600080fd5b5061071561245e565b6040516107229190613f97565b60405180910390f35b34801561073757600080fd5b50610752600480360381019061074d9190614099565b612464565b60405161075f919061404b565b60405180910390f35b34801561077457600080fd5b5061078f600480360381019061078a9190614099565b6124cc565b60405161079c9190614107565b60405180910390f35b3480156107b157600080fd5b506107ba6124ff565b6040516107c791906143b5565b60405180910390f35b3480156107dc57600080fd5b506107f760048036038101906107f29190614914565b612788565b6040516108049190613f63565b60405180910390f35b34801561081957600080fd5b50610834600480360381019061082f91906144a3565b61281c565b005b60007f780e9d63000000000000000000000000000000000000000000000000000000007bffffffffffffffffffffffffffffffffffffffffffffffffffffffff1916827bffffffffffffffffffffffffffffffffffffffffffffffffffffffff191614806108a957506108a8826128a0565b5b9050919050565b600f5481565b6060600080546108c590614983565b80601f01602080910402602001604051908101604052809291908181526020018280546108f190614983565b801561093e5780601f106109135761010080835404028352916020019161093e565b820191906000526020600020905b81548152906001019060200180831161092157829003601f168201915b5050505050905090565b600061095382612982565b6004600083815260200190815260200160002060009054906101000a900473ffffffffffffffffffffffffffffffffffffffff169050919050565b6000610999826111c4565b90508073ffffffffffffffffffffffffffffffffffffffff168373ffffffffffffffffffffffffffffffffffffffff161415610a0a576040517f08c379a0000000000000000000000000000000000000000000000000000000008152600401610a0190614a27565b60405180910390fd5b8073ffffffffffffffffffffffffffffffffffffffff16610a296129cd565b73ffffffffffffffffffffffffffffffffffffffff161480610a585750610a5781610a526129cd565b612788565b5b610a97576040517f08c379a0000000000000000000000000000000000000000000000000000000008152600401610a8e90614ab9565b60405180910390fd5b610aa183836129d5565b505050565b60115481565b6000600880549050905090565b610aca610ac46129cd565b82612a8e565b610b09576040517f08c379a0000000000000000000000000000000000000000000000000000000008152600401610b0090614b4b565b60405180910390fd5b610b14838383612b23565b505050565b60606012805480602002602001604051908101604052809291908181526020016000905b82821015610d9957838290600052602060002090600702016040518060e0016040529081600082015481526020016001820160009054906101000a900473ffffffffffffffffffffffffffffffffffffffff1673ffffffffffffffffffffffffffffffffffffffff1673ffffffffffffffffffffffffffffffffffffffff16815260200160028201548152602001600382018054610bda90614983565b80601f0160208091040260200160405190810160405280929190818152602001828054610c0690614983565b8015610c535780601f10610c2857610100808354040283529160200191610c53565b820191906000526020600020905b815481529060010190602001808311610c3657829003601f168201915b50505050508152602001600482018054610c6c90614983565b80601f0160208091040260200160405190810160405280929190818152602001828054610c9890614983565b8015610ce55780601f10610cba57610100808354040283529160200191610ce5565b820191906000526020600020905b815481529060010190602001808311610cc857829003601f168201915b50505050508152602001600582018054610cfe90614983565b80601f0160208091040260200160405190810160405280929190818152602001828054610d2a90614983565b8015610d775780601f10610d4c57610100808354040283529160200191610d77565b820191906000526020600020905b815481529060010190602001808311610d5a57829003601f168201915b5050505050815260200160068201548152505081526020019060010190610b3d565b50505050905090565b6000610dad8361124b565b8210610dee576040517f08c379a0000000000000000000000000000000000000000000000000000000008152600401610de590614bdd565b60405180910390fd5b600660008473ffffffffffffffffffffffffffffffffffffffff1673ffffffffffffffffffffffffffffffffffffffff168152602001908152602001600020600083815260200190815260200160002054905092915050565b610e62838383604051806020016040528060008152506123fc565b505050565b600d60009054906101000a900473ffffffffffffffffffffffffffffffffffffffff1681565b6000610e97610aac565b8210610ed8576040517f08c379a0000000000000000000000000000000000000000000000000000000008152600401610ecf90614c6f565b60405180910390fd5b60088281548110610eec57610eeb614c8f565b5b90600052602060002001549050919050565b610f06613db9565b600082118015610f1b57506013805490508211155b610f5a576040517f08c379a0000000000000000000000000000000000000000000000000000000008152600401610f5190614d0a565b60405180910390fd5b6013600183610f699190614d59565b81548110610f7a57610f79614c8f565b5b90600052602060002090600702016040518060e0016040529081600082015481526020016001820160009054906101000a900473ffffffffffffffffffffffffffffffffffffffff1673ffffffffffffffffffffffffffffffffffffffff1673ffffffffffffffffffffffffffffffffffffffff1681526020016002820154815260200160038201805461100d90614983565b80601f016020809104026020016040519081016040528092919081815260200182805461103990614983565b80156110865780601f1061105b57610100808354040283529160200191611086565b820191906000526020600020905b81548152906001019060200180831161106957829003601f168201915b5050505050815260200160048201805461109f90614983565b80601f01602080910402602001604051908101604052809291908181526020018280546110cb90614983565b80156111185780601f106110ed57610100808354040283529160200191611118565b820191906000526020600020905b8154815290600101906020018083116110fb57829003601f168201915b5050505050815260200160058201805461113190614983565b80601f016020809104026020016040519081016040528092919081815260200182805461115d90614983565b80156111aa5780601f1061117f576101008083540402835291602001916111aa565b820191906000526020600020905b81548152906001019060200180831161118d57829003601f168201915b505050505081526020016006820154815250509050919050565b6000806111d083612e1d565b9050600073ffffffffffffffffffffffffffffffffffffffff168173ffffffffffffffffffffffffffffffffffffffff161415611242576040517f08c379a000000000000000000000000000000000000000000000000000000000815260040161123990614dd9565b60405180910390fd5b80915050919050565b60008073ffffffffffffffffffffffffffffffffffffffff168273ffffffffffffffffffffffffffffffffffffffff1614156112bc576040517f08c379a00000000000000000000000000000000000000000000000000000000081526004016112b390614e6b565b60405180910390fd5b600360008373ffffffffffffffffffffffffffffffffffffffff1673ffffffffffffffffffffffffffffffffffffffff168152602001908152602001600020549050919050565b61130b612e5a565b6113156000612ed8565b565b60105481565b601154341015611362576040517f08c379a000000000000000000000000000000000000000000000000000000000815260040161135990614ed7565b60405180910390fd5b6000600b836040516113749190614f33565b908152602001604051809103902060009054906101000a900460ff1660ff16146113d3576040517f08c379a00000000000000000000000000000000000000000000000000000000081526004016113ca90614f96565b60405180910390fd5b60006064600e54346113e59190614fb6565b6113ef919061503f565b905061141d600d60009054906101000a900473ffffffffffffffffffffffffffffffffffffffff1682612f9e565b611439611428611884565b82346114349190614d59565b612f9e565b600f600081548092919061144c90615070565b919050555060136040518060e00160405280600f5481526020013373ffffffffffffffffffffffffffffffffffffffff1681526020018481526020018781526020018681526020018581526020014281525090806001815401808255809150506001900390600052602060002090600702016000909190919091506000820151816000015560208201518160010160006101000a81548173ffffffffffffffffffffffffffffffffffffffff021916908373ffffffffffffffffffffffffffffffffffffffff16021790555060408201518160020155606082015181600301908051906020019061153e929190613e0c565b50608082015181600401908051906020019061155b929190613e0c565b5060a0820151816005019080519060200190611578929190613e0c565b5060c0820151816006015550503373ffffffffffffffffffffffffffffffffffffffff167fb9508407a6eccb191d8da3286f4173697cf95604e9ea192fe5ab7c862b5221f6600f543486426040516115d394939291906150b9565b60405180910390a26115e733600f5461304f565b6001600b846040516115f99190614f33565b908152602001604051809103902060006101000a81548160ff021916908360ff16021790555033600c6000600f54815260200190815260200160002060006101000a81548173ffffffffffffffffffffffffffffffffffffffff021916908373ffffffffffffffffffffffffffffffffffffffff1602179055505050505050565b6013818154811061168a57600080fd5b90600052602060002090600702016000915090508060000154908060010160009054906101000a900473ffffffffffffffffffffffffffffffffffffffff16908060020154908060030180546116df90614983565b80601f016020809104026020016040519081016040528092919081815260200182805461170b90614983565b80156117585780601f1061172d57610100808354040283529160200191611758565b820191906000526020600020905b81548152906001019060200180831161173b57829003601f168201915b50505050509080600401805461176d90614983565b80601f016020809104026020016040519081016040528092919081815260200182805461179990614983565b80156117e65780601f106117bb576101008083540402835291602001916117e6565b820191906000526020600020905b8154815290600101906020018083116117c957829003601f168201915b5050505050908060050180546117fb90614983565b80601f016020809104026020016040519081016040528092919081815260200182805461182790614983565b80156118745780601f1061184957610100808354040283529160200191611874565b820191906000526020600020905b81548152906001019060200180831161185757829003601f168201915b5050505050908060060154905087565b6000600a60009054906101000a900473ffffffffffffffffffffffffffffffffffffffff16905090565b6060600180546118bd90614983565b80601f01602080910402602001604051908101604052809291908181526020018280546118e990614983565b80156119365780601f1061190b57610100808354040283529160200191611936565b820191906000526020600020905b81548152906001019060200180831161191957829003601f168201915b5050505050905090565b6012818154811061195057600080fd5b90600052602060002090600702016000915090508060000154908060010160009054906101000a900473ffffffffffffffffffffffffffffffffffffffff16908060020154908060030180546119a590614983565b80601f01602080910402602001604051908101604052809291908181526020018280546119d190614983565b8015611a1e5780601f106119f357610100808354040283529160200191611a1e565b820191906000526020600020905b815481529060010190602001808311611a0157829003601f168201915b505050505090806004018054611a3390614983565b80601f0160208091040260200160405190810160405280929190818152602001828054611a5f90614983565b8015611aac5780601f10611a8157610100808354040283529160200191611aac565b820191906000526020600020905b815481529060010190602001808311611a8f57829003601f168201915b505050505090806005018054611ac190614983565b80601f0160208091040260200160405190810160405280929190818152602001828054611aed90614983565b8015611b3a5780601f10611b0f57610100808354040283529160200191611b3a565b820191906000526020600020905b815481529060010190602001808311611b1d57829003601f168201915b5050505050908060060154905087565b600081118015611b5f57506013805490508111155b611b9e576040517f08c379a0000000000000000000000000000000000000000000000000000000008152600401611b9590614d0a565b60405180910390fd5b6013600182611bad9190614d59565b81548110611bbe57611bbd614c8f565b5b906000526020600020906007020160020154341015611c12576040517f08c379a0000000000000000000000000000000000000000000000000000000008152600401611c0990615151565b60405180910390fd5b6013600182611c219190614d59565b81548110611c3257611c31614c8f565b5b906000526020600020906007020160010160009054906101000a900473ffffffffffffffffffffffffffffffffffffffff1673ffffffffffffffffffffffffffffffffffffffff163373ffffffffffffffffffffffffffffffffffffffff161415611cd2576040517f08c379a0000000000000000000000000000000000000000000000000000000008152600401611cc9906151bd565b60405180910390fd5b60006064600e5434611ce49190614fb6565b611cee919061503f565b9050611d1c600d60009054906101000a900473ffffffffffffffffffffffffffffffffffffffff1682612f9e565b611d826013600184611d2e9190614d59565b81548110611d3f57611d3e614c8f565b5b906000526020600020906007020160010160009054906101000a900473ffffffffffffffffffffffffffffffffffffffff168234611d7d9190614d59565b612f9e565b60106000815480929190611d9590615070565b919050555060126040518060e0016040528060105481526020013373ffffffffffffffffffffffffffffffffffffffff1681526020013481526020016013600186611de09190614d59565b81548110611df157611df0614c8f565b5b90600052602060002090600702016003018054611e0d90614983565b80601f0160208091040260200160405190810160405280929190818152602001828054611e3990614983565b8015611e865780601f10611e5b57610100808354040283529160200191611e86565b820191906000526020600020905b815481529060010190602001808311611e6957829003601f168201915b505050505081526020016013600186611e9f9190614d59565b81548110611eb057611eaf614c8f565b5b90600052602060002090600702016004018054611ecc90614983565b80601f0160208091040260200160405190810160405280929190818152602001828054611ef890614983565b8015611f455780601f10611f1a57610100808354040283529160200191611f45565b820191906000526020600020905b815481529060010190602001808311611f2857829003601f168201915b505050505081526020016013600186611f5e9190614d59565b81548110611f6f57611f6e614c8f565b5b90600052602060002090600702016005018054611f8b90614983565b80601f0160208091040260200160405190810160405280929190818152602001828054611fb790614983565b80156120045780601f10611fd957610100808354040283529160200191612004565b820191906000526020600020905b815481529060010190602001808311611fe757829003601f168201915b505050505081526020014281525090806001815401808255809150506001900390600052602060002090600702016000909190919091506000820151816000015560208201518160010160006101000a81548173ffffffffffffffffffffffffffffffffffffffff021916908373ffffffffffffffffffffffffffffffffffffffff1602179055506040820151816002015560608201518160030190805190602001906120b2929190613e0c565b5060808201518160040190805190602001906120cf929190613e0c565b5060a08201518160050190805190602001906120ec929190613e0c565b5060c0820151816006015550503373ffffffffffffffffffffffffffffffffffffffff167fb9508407a6eccb191d8da3286f4173697cf95604e9ea192fe5ab7c862b5221f66010543460136001876121449190614d59565b8154811061215557612154614c8f565b5b9060005260206000209060070201600501426040516121779493929190615272565b60405180910390a26121db60136001846121919190614d59565b815481106121a2576121a1614c8f565b5b906000526020600020906007020160010160009054906101000a900473ffffffffffffffffffffffffffffffffffffffff163384612b23565b3360136001846121eb9190614d59565b815481106121fc576121fb614c8f565b5b906000526020600020906007020160010160006101000a81548173ffffffffffffffffffffffffffffffffffffffff021916908373ffffffffffffffffffffffffffffffffffffffff1602179055505050565b61226161225a6129cd565b838361306d565b5050565b60008082116122a9576040517f08c379a00000000000000000000000000000000000000000000000000000000081526004016122a09061530a565b60405180910390fd5b6000831180156122be57506013805490508311155b6122fd576040517f08c379a00000000000000000000000000000000000000000000000000000000081526004016122f490614d0a565b60405180910390fd5b601360018461230c9190614d59565b8154811061231d5761231c614c8f565b5b906000526020600020906007020160010160009054906101000a900473ffffffffffffffffffffffffffffffffffffffff1673ffffffffffffffffffffffffffffffffffffffff163373ffffffffffffffffffffffffffffffffffffffff16146123bc576040517f08c379a00000000000000000000000000000000000000000000000000000000081526004016123b3906151bd565b60405180910390fd5b8160136001856123cc9190614d59565b815481106123dd576123dc614c8f565b5b9060005260206000209060070201600201819055506001905092915050565b61240d6124076129cd565b83612a8e565b61244c576040517f08c379a000000000000000000000000000000000000000000000000000000000815260040161244390614b4b565b60405180910390fd5b612458848484846131da565b50505050565b600e5481565b606061246f82612982565b6000612479613236565b9050600081511161249957604051806020016040528060008152506124c4565b806124a38461324d565b6040516020016124b492919061532a565b6040516020818303038152906040525b915050919050565b600c6020528060005260406000206000915054906101000a900473ffffffffffffffffffffffffffffffffffffffff1681565b60606013805480602002602001604051908101604052809291908181526020016000905b8282101561277f57838290600052602060002090600702016040518060e0016040529081600082015481526020016001820160009054906101000a900473ffffffffffffffffffffffffffffffffffffffff1673ffffffffffffffffffffffffffffffffffffffff1673ffffffffffffffffffffffffffffffffffffffff168152602001600282015481526020016003820180546125c090614983565b80601f01602080910402602001604051908101604052809291908181526020018280546125ec90614983565b80156126395780601f1061260e57610100808354040283529160200191612639565b820191906000526020600020905b81548152906001019060200180831161261c57829003601f168201915b5050505050815260200160048201805461265290614983565b80601f016020809104026020016040519081016040528092919081815260200182805461267e90614983565b80156126cb5780601f106126a0576101008083540402835291602001916126cb565b820191906000526020600020905b8154815290600101906020018083116126ae57829003601f168201915b505050505081526020016005820180546126e490614983565b80601f016020809104026020016040519081016040528092919081815260200182805461271090614983565b801561275d5780601f106127325761010080835404028352916020019161275d565b820191906000526020600020905b81548152906001019060200180831161274057829003601f168201915b5050505050815260200160068201548152505081526020019060010190612523565b50505050905090565b6000600560008473ffffffffffffffffffffffffffffffffffffffff1673ffffffffffffffffffffffffffffffffffffffff16815260200190815260200160002060008373ffffffffffffffffffffffffffffffffffffffff1673ffffffffffffffffffffffffffffffffffffffff16815260200190815260200160002060009054906101000a900460ff16905092915050565b612824612e5a565b600073ffffffffffffffffffffffffffffffffffffffff168173ffffffffffffffffffffffffffffffffffffffff161415612894576040517f08c379a000000000000000000000000000000000000000000000000000000000815260040161288b906153c0565b60405180910390fd5b61289d81612ed8565b50565b60007f80ac58cd000000000000000000000000000000000000000000000000000000007bffffffffffffffffffffffffffffffffffffffffffffffffffffffff1916827bffffffffffffffffffffffffffffffffffffffffffffffffffffffff1916148061296b57507f5b5e139f000000000000000000000000000000000000000000000000000000007bffffffffffffffffffffffffffffffffffffffffffffffffffffffff1916827bffffffffffffffffffffffffffffffffffffffffffffffffffffffff1916145b8061297b575061297a82613325565b5b9050919050565b61298b8161338f565b6129ca576040517f08c379a00000000000000000000000000000000000000000000000000000000081526004016129c190614dd9565b60405180910390fd5b50565b600033905090565b816004600083815260200190815260200160002060006101000a81548173ffffffffffffffffffffffffffffffffffffffff021916908373ffffffffffffffffffffffffffffffffffffffff160217905550808273ffffffffffffffffffffffffffffffffffffffff16612a48836111c4565b73ffffffffffffffffffffffffffffffffffffffff167f8c5be1e5ebec7d5bd14f71427d1e84f3dd0314c0f7b2291e5b200ac8c7c3b92560405160405180910390a45050565b600080612a9a836111c4565b90508073ffffffffffffffffffffffffffffffffffffffff168473ffffffffffffffffffffffffffffffffffffffff161480612adc5750612adb8185612788565b5b80612b1a57508373ffffffffffffffffffffffffffffffffffffffff16612b0284610948565b73ffffffffffffffffffffffffffffffffffffffff16145b91505092915050565b8273ffffffffffffffffffffffffffffffffffffffff16612b43826111c4565b73ffffffffffffffffffffffffffffffffffffffff1614612b99576040517f08c379a0000000000000000000000000000000000000000000000000000000008152600401612b9090615452565b60405180910390fd5b600073ffffffffffffffffffffffffffffffffffffffff168273ffffffffffffffffffffffffffffffffffffffff161415612c09576040517f08c379a0000000000000000000000000000000000000000000000000000000008152600401612c00906154e4565b60405180910390fd5b612c1683838360016133d0565b8273ffffffffffffffffffffffffffffffffffffffff16612c36826111c4565b73ffffffffffffffffffffffffffffffffffffffff1614612c8c576040517f08c379a0000000000000000000000000000000000000000000000000000000008152600401612c8390615452565b60405180910390fd5b6004600082815260200190815260200160002060006101000a81549073ffffffffffffffffffffffffffffffffffffffff02191690556001600360008573ffffffffffffffffffffffffffffffffffffffff1673ffffffffffffffffffffffffffffffffffffffff168152602001908152602001600020600082825403925050819055506001600360008473ffffffffffffffffffffffffffffffffffffffff1673ffffffffffffffffffffffffffffffffffffffff16815260200190815260200160002060008282540192505081905550816002600083815260200190815260200160002060006101000a81548173ffffffffffffffffffffffffffffffffffffffff021916908373ffffffffffffffffffffffffffffffffffffffff160217905550808273ffffffffffffffffffffffffffffffffffffffff168473ffffffffffffffffffffffffffffffffffffffff167fddf252ad1be2c89b69c2b068fc378daa952ba7f163c4a11628f55a4df523b3ef60405160405180910390a4612e188383836001613530565b505050565b60006002600083815260200190815260200160002060009054906101000a900473ffffffffffffffffffffffffffffffffffffffff169050919050565b612e626129cd565b73ffffffffffffffffffffffffffffffffffffffff16612e80611884565b73ffffffffffffffffffffffffffffffffffffffff1614612ed6576040517f08c379a0000000000000000000000000000000000000000000000000000000008152600401612ecd90615550565b60405180910390fd5b565b6000600a60009054906101000a900473ffffffffffffffffffffffffffffffffffffffff16905081600a60006101000a81548173ffffffffffffffffffffffffffffffffffffffff021916908373ffffffffffffffffffffffffffffffffffffffff1602179055508173ffffffffffffffffffffffffffffffffffffffff168173ffffffffffffffffffffffffffffffffffffffff167f8be0079c531659141344cd1fd0a4f28419497f9722a3daafe3b4186f6b6457e060405160405180910390a35050565b60008273ffffffffffffffffffffffffffffffffffffffff1682604051612fc4906155a1565b60006040518083038185875af1925050503d8060008114613001576040519150601f19603f3d011682016040523d82523d6000602084013e613006565b606091505b505090508061304a576040517f08c379a000000000000000000000000000000000000000000000000000000000815260040161304190615602565b60405180910390fd5b505050565b613069828260405180602001604052806000815250613536565b5050565b8173ffffffffffffffffffffffffffffffffffffffff168373ffffffffffffffffffffffffffffffffffffffff1614156130dc576040517f08c379a00000000000000000000000000000000000000000000000000000000081526004016130d39061566e565b60405180910390fd5b80600560008573ffffffffffffffffffffffffffffffffffffffff1673ffffffffffffffffffffffffffffffffffffffff16815260200190815260200160002060008473ffffffffffffffffffffffffffffffffffffffff1673ffffffffffffffffffffffffffffffffffffffff16815260200190815260200160002060006101000a81548160ff0219169083151502179055508173ffffffffffffffffffffffffffffffffffffffff168373ffffffffffffffffffffffffffffffffffffffff167f17307eab39ab6107e8899845ad3d59bd9653f200f220920489ca2b5937696c31836040516131cd9190613f63565b60405180910390a3505050565b6131e5848484612b23565b6131f184848484613591565b613230576040517f08c379a000000000000000000000000000000000000000000000000000000000815260040161322790615700565b60405180910390fd5b50505050565b606060405180602001604052806000815250905090565b60606000600161325c84613719565b01905060008167ffffffffffffffff81111561327b5761327a6144da565b5b6040519080825280601f01601f1916602001820160405280156132ad5781602001600182028036833780820191505090505b509050600082602001820190505b60011561331a578080600190039150507f3031323334353637383961626364656600000000000000000000000000000000600a86061a8153600a858161330457613303615010565b5b04945060008514156133155761331a565b6132bb565b819350505050919050565b60007f01ffc9a7000000000000000000000000000000000000000000000000000000007bffffffffffffffffffffffffffffffffffffffffffffffffffffffff1916827bffffffffffffffffffffffffffffffffffffffffffffffffffffffff1916149050919050565b60008073ffffffffffffffffffffffffffffffffffffffff166133b183612e1d565b73ffffffffffffffffffffffffffffffffffffffff1614159050919050565b6133dc8484848461386c565b6001811115613420576040517f08c379a000000000000000000000000000000000000000000000000000000000815260040161341790615792565b60405180910390fd5b6000829050600073ffffffffffffffffffffffffffffffffffffffff168573ffffffffffffffffffffffffffffffffffffffff1614156134685761346381613872565b6134a7565b8373ffffffffffffffffffffffffffffffffffffffff168573ffffffffffffffffffffffffffffffffffffffff16146134a6576134a585826138bb565b5b5b600073ffffffffffffffffffffffffffffffffffffffff168473ffffffffffffffffffffffffffffffffffffffff1614156134ea576134e581613a28565b613529565b8473ffffffffffffffffffffffffffffffffffffffff168473ffffffffffffffffffffffffffffffffffffffff1614613528576135278482613af9565b5b5b5050505050565b50505050565b6135408383613b78565b61354d6000848484613591565b61358c576040517f08c379a000000000000000000000000000000000000000000000000000000000815260040161358390615700565b60405180910390fd5b505050565b60006135b28473ffffffffffffffffffffffffffffffffffffffff16613d96565b1561370c578373ffffffffffffffffffffffffffffffffffffffff1663150b7a026135db6129cd565b8786866040518563ffffffff1660e01b81526004016135fd9493929190615807565b6020604051808303816000875af192505050801561363957506040513d601f19601f820116820180604052508101906136369190615868565b60015b6136bc573d8060008114613669576040519150601f19603f3d011682016040523d82523d6000602084013e61366e565b606091505b506000815114156136b4576040517f08c379a00000000000000000000000000000000000000000000000000000000081526004016136ab90615700565b60405180910390fd5b805181602001fd5b63150b7a0260e01b7bffffffffffffffffffffffffffffffffffffffffffffffffffffffff1916817bffffffffffffffffffffffffffffffffffffffffffffffffffffffff191614915050613711565b600190505b949350505050565b600080600090507a184f03e93ff9f4daa797ed6e38ed64bf6a1f0100000000000000008310613777577a184f03e93ff9f4daa797ed6e38ed64bf6a1f010000000000000000838161376d5761376c615010565b5b0492506040810190505b6d04ee2d6d415b85acef810000000083106137b4576d04ee2d6d415b85acef810000000083816137aa576137a9615010565b5b0492506020810190505b662386f26fc1000083106137e357662386f26fc1000083816137d9576137d8615010565b5b0492506010810190505b6305f5e100831061380c576305f5e100838161380257613801615010565b5b0492506008810190505b612710831061383157612710838161382757613826615010565b5b0492506004810190505b60648310613854576064838161384a57613849615010565b5b0492506002810190505b600a8310613863576001810190505b80915050919050565b50505050565b6008805490506009600083815260200190815260200160002081905550600881908060018154018082558091505060019003906000526020600020016000909190919091505550565b600060016138c88461124b565b6138d29190614d59565b90506000600760008481526020019081526020016000205490508181146139b7576000600660008673ffffffffffffffffffffffffffffffffffffffff1673ffffffffffffffffffffffffffffffffffffffff168152602001908152602001600020600084815260200190815260200160002054905080600660008773ffffffffffffffffffffffffffffffffffffffff1673ffffffffffffffffffffffffffffffffffffffff168152602001908152602001600020600084815260200190815260200160002081905550816007600083815260200190815260200160002081905550505b6007600084815260200190815260200160002060009055600660008573ffffffffffffffffffffffffffffffffffffffff1673ffffffffffffffffffffffffffffffffffffffff16815260200190815260200160002060008381526020019081526020016000206000905550505050565b60006001600880549050613a3c9190614d59565b9050600060096000848152602001908152602001600020549050600060088381548110613a6c57613a6b614c8f565b5b906000526020600020015490508060088381548110613a8e57613a8d614c8f565b5b906000526020600020018190555081600960008381526020019081526020016000208190555060096000858152602001908152602001600020600090556008805480613add57613adc615895565b5b6001900381819060005260206000200160009055905550505050565b6000613b048361124b565b905081600660008573ffffffffffffffffffffffffffffffffffffffff1673ffffffffffffffffffffffffffffffffffffffff168152602001908152602001600020600083815260200190815260200160002081905550806007600084815260200190815260200160002081905550505050565b600073ffffffffffffffffffffffffffffffffffffffff168273ffffffffffffffffffffffffffffffffffffffff161415613be8576040517f08c379a0000000000000000000000000000000000000000000000000000000008152600401613bdf90615910565b60405180910390fd5b613bf18161338f565b15613c31576040517f08c379a0000000000000000000000000000000000000000000000000000000008152600401613c289061597c565b60405180910390fd5b613c3f6000838360016133d0565b613c488161338f565b15613c88576040517f08c379a0000000000000000000000000000000000000000000000000000000008152600401613c7f9061597c565b60405180910390fd5b6001600360008473ffffffffffffffffffffffffffffffffffffffff1673ffffffffffffffffffffffffffffffffffffffff16815260200190815260200160002060008282540192505081905550816002600083815260200190815260200160002060006101000a81548173ffffffffffffffffffffffffffffffffffffffff021916908373ffffffffffffffffffffffffffffffffffffffff160217905550808273ffffffffffffffffffffffffffffffffffffffff16600073ffffffffffffffffffffffffffffffffffffffff167fddf252ad1be2c89b69c2b068fc378daa952ba7f163c4a11628f55a4df523b3ef60405160405180910390a4613d92600083836001613530565b5050565b6000808273ffffffffffffffffffffffffffffffffffffffff163b119050919050565b6040518060e0016040528060008152602001600073ffffffffffffffffffffffffffffffffffffffff16815260200160008152602001606081526020016060815260200160608152602001600081525090565b828054613e1890614983565b90600052602060002090601f016020900481019282613e3a5760008555613e81565b82601f10613e5357805160ff1916838001178555613e81565b82800160010185558215613e81579182015b82811115613e80578251825591602001919060010190613e65565b5b509050613e8e9190613e92565b5090565b5b80821115613eab576000816000905550600101613e93565b5090565b6000604051905090565b600080fd5b600080fd5b60007fffffffff0000000000000000000000000000000000000000000000000000000082169050919050565b613ef881613ec3565b8114613f0357600080fd5b50565b600081359050613f1581613eef565b92915050565b600060208284031215613f3157613f30613eb9565b5b6000613f3f84828501613f06565b91505092915050565b60008115159050919050565b613f5d81613f48565b82525050565b6000602082019050613f786000830184613f54565b92915050565b6000819050919050565b613f9181613f7e565b82525050565b6000602082019050613fac6000830184613f88565b92915050565b600081519050919050565b600082825260208201905092915050565b60005b83811015613fec578082015181840152602081019050613fd1565b83811115613ffb576000848401525b50505050565b6000601f19601f8301169050919050565b600061401d82613fb2565b6140278185613fbd565b9350614037818560208601613fce565b61404081614001565b840191505092915050565b600060208201905081810360008301526140658184614012565b905092915050565b61407681613f7e565b811461408157600080fd5b50565b6000813590506140938161406d565b92915050565b6000602082840312156140af576140ae613eb9565b5b60006140bd84828501614084565b91505092915050565b600073ffffffffffffffffffffffffffffffffffffffff82169050919050565b60006140f1826140c6565b9050919050565b614101816140e6565b82525050565b600060208201905061411c60008301846140f8565b92915050565b61412b816140e6565b811461413657600080fd5b50565b60008135905061414881614122565b92915050565b6000806040838503121561416557614164613eb9565b5b600061417385828601614139565b925050602061418485828601614084565b9150509250929050565b6000806000606084860312156141a7576141a6613eb9565b5b60006141b586828701614139565b93505060206141c686828701614139565b92505060406141d786828701614084565b9150509250925092565b600081519050919050565b600082825260208201905092915050565b6000819050602082019050919050565b61421681613f7e565b82525050565b614225816140e6565b82525050565b600082825260208201905092915050565b600061424782613fb2565b614251818561422b565b9350614261818560208601613fce565b61426a81614001565b840191505092915050565b600060e08301600083015161428d600086018261420d565b5060208301516142a0602086018261421c565b5060408301516142b3604086018261420d565b50606083015184820360608601526142cb828261423c565b915050608083015184820360808601526142e5828261423c565b91505060a083015184820360a08601526142ff828261423c565b91505060c083015161431460c086018261420d565b508091505092915050565b600061432b8383614275565b905092915050565b6000602082019050919050565b600061434b826141e1565b61435581856141ec565b935083602082028501614367856141fd565b8060005b858110156143a35784840389528151614384858261431f565b945061438f83614333565b925060208a0199505060018101905061436b565b50829750879550505050505092915050565b600060208201905081810360008301526143cf8184614340565b905092915050565b600060e0830160008301516143ef600086018261420d565b506020830151614402602086018261421c565b506040830151614415604086018261420d565b506060830151848203606086015261442d828261423c565b91505060808301518482036080860152614447828261423c565b91505060a083015184820360a0860152614461828261423c565b91505060c083015161447660c086018261420d565b508091505092915050565b6000602082019050818103600083015261449b81846143d7565b905092915050565b6000602082840312156144b9576144b8613eb9565b5b60006144c784828501614139565b91505092915050565b600080fd5b600080fd5b7f4e487b7100000000000000000000000000000000000000000000000000000000600052604160045260246000fd5b61451282614001565b810181811067ffffffffffffffff82111715614531576145306144da565b5b80604052505050565b6000614544613eaf565b90506145508282614509565b919050565b600067ffffffffffffffff8211156145705761456f6144da565b5b61457982614001565b9050602081019050919050565b82818337600083830152505050565b60006145a86145a384614555565b61453a565b9050828152602081018484840111156145c4576145c36144d5565b5b6145cf848285614586565b509392505050565b600082601f8301126145ec576145eb6144d0565b5b81356145fc848260208601614595565b91505092915050565b6000806000806080858703121561461f5761461e613eb9565b5b600085013567ffffffffffffffff81111561463d5761463c613ebe565b5b614649878288016145d7565b945050602085013567ffffffffffffffff81111561466a57614669613ebe565b5b614676878288016145d7565b935050604085013567ffffffffffffffff81111561469757614696613ebe565b5b6146a3878288016145d7565b92505060606146b487828801614084565b91505092959194509250565b600060e0820190506146d5600083018a613f88565b6146e260208301896140f8565b6146ef6040830188613f88565b81810360608301526147018187614012565b905081810360808301526147158186614012565b905081810360a08301526147298185614012565b905061473860c0830184613f88565b98975050505050505050565b61474d81613f48565b811461475857600080fd5b50565b60008135905061476a81614744565b92915050565b6000806040838503121561478757614786613eb9565b5b600061479585828601614139565b92505060206147a68582860161475b565b9150509250929050565b600080604083850312156147c7576147c6613eb9565b5b60006147d585828601614084565b92505060206147e685828601614084565b9150509250929050565b600067ffffffffffffffff82111561480b5761480a6144da565b5b61481482614001565b9050602081019050919050565b600061483461482f846147f0565b61453a565b9050828152602081018484840111156148505761484f6144d5565b5b61485b848285614586565b509392505050565b600082601f830112614878576148776144d0565b5b8135614888848260208601614821565b91505092915050565b600080600080608085870312156148ab576148aa613eb9565b5b60006148b987828801614139565b94505060206148ca87828801614139565b93505060406148db87828801614084565b925050606085013567ffffffffffffffff8111156148fc576148fb613ebe565b5b61490887828801614863565b91505092959194509250565b6000806040838503121561492b5761492a613eb9565b5b600061493985828601614139565b925050602061494a85828601614139565b9150509250929050565b7f4e487b7100000000000000000000000000000000000000000000000000000000600052602260045260246000fd5b6000600282049050600182168061499b57607f821691505b602082108114156149af576149ae614954565b5b50919050565b7f4552433732313a20617070726f76616c20746f2063757272656e74206f776e6560008201527f7200000000000000000000000000000000000000000000000000000000000000602082015250565b6000614a11602183613fbd565b9150614a1c826149b5565b604082019050919050565b60006020820190508181036000830152614a4081614a04565b9050919050565b7f4552433732313a20617070726f76652063616c6c6572206973206e6f7420746f60008201527f6b656e206f776e6572206f7220617070726f76656420666f7220616c6c000000602082015250565b6000614aa3603d83613fbd565b9150614aae82614a47565b604082019050919050565b60006020820190508181036000830152614ad281614a96565b9050919050565b7f4552433732313a2063616c6c6572206973206e6f7420746f6b656e206f776e6560008201527f72206f7220617070726f76656400000000000000000000000000000000000000602082015250565b6000614b35602d83613fbd565b9150614b4082614ad9565b604082019050919050565b60006020820190508181036000830152614b6481614b28565b9050919050565b7f455243373231456e756d657261626c653a206f776e657220696e646578206f7560008201527f74206f6620626f756e6473000000000000000000000000000000000000000000602082015250565b6000614bc7602b83613fbd565b9150614bd282614b6b565b604082019050919050565b60006020820190508181036000830152614bf681614bba565b9050919050565b7f455243373231456e756d657261626c653a20676c6f62616c20696e646578206f60008201527f7574206f6620626f756e64730000000000000000000000000000000000000000602082015250565b6000614c59602c83613fbd565b9150614c6482614bfd565b604082019050919050565b60006020820190508181036000830152614c8881614c4c565b9050919050565b7f4e487b7100000000000000000000000000000000000000000000000000000000600052603260045260246000fd5b7f4e465420646f6573206e6f742065786973740000000000000000000000000000600082015250565b6000614cf4601283613fbd565b9150614cff82614cbe565b602082019050919050565b60006020820190508181036000830152614d2381614ce7565b9050919050565b7f4e487b7100000000000000000000000000000000000000000000000000000000600052601160045260246000fd5b6000614d6482613f7e565b9150614d6f83613f7e565b925082821015614d8257614d81614d2a565b5b828203905092915050565b7f4552433732313a20696e76616c696420746f6b656e2049440000000000000000600082015250565b6000614dc3601883613fbd565b9150614dce82614d8d565b602082019050919050565b60006020820190508181036000830152614df281614db6565b9050919050565b7f4552433732313a2061646472657373207a65726f206973206e6f74206120766160008201527f6c6964206f776e65720000000000000000000000000000000000000000000000602082015250565b6000614e55602983613fbd565b9150614e6082614df9565b604082019050919050565b60006020820190508181036000830152614e8481614e48565b9050919050565b7f457468657220746f6f206c6f7720666f72206d696e74696e6721000000000000600082015250565b6000614ec1601a83613fbd565b9150614ecc82614e8b565b602082019050919050565b60006020820190508181036000830152614ef081614eb4565b9050919050565b600081905092915050565b6000614f0d82613fb2565b614f178185614ef7565b9350614f27818560208601613fce565b80840191505092915050565b6000614f3f8284614f02565b915081905092915050565b7f54686973204e465420697320616c7265616479206d696e746564210000000000600082015250565b6000614f80601b83613fbd565b9150614f8b82614f4a565b602082019050919050565b60006020820190508181036000830152614faf81614f73565b9050919050565b6000614fc182613f7e565b9150614fcc83613f7e565b9250817fffffffffffffffffffffffffffffffffffffffffffffffffffffffffffffffff048311821515161561500557615004614d2a565b5b828202905092915050565b7f4e487b7100000000000000000000000000000000000000000000000000000000600052601260045260246000fd5b600061504a82613f7e565b915061505583613f7e565b92508261506557615064615010565b5b828204905092915050565b600061507b82613f7e565b91507fffffffffffffffffffffffffffffffffffffffffffffffffffffffffffffffff8214156150ae576150ad614d2a565b5b600182019050919050565b60006080820190506150ce6000830187613f88565b6150db6020830186613f88565b81810360408301526150ed8185614012565b90506150fc6060830184613f88565b95945050505050565b7f457468657220746f6f206c6f7720666f72207075726368617365210000000000600082015250565b600061513b601b83613fbd565b915061514682615105565b602082019050919050565b6000602082019050818103600083015261516a8161512e565b9050919050565b7f4f7065726174696f6e204e6f7420416c6c6f7765642100000000000000000000600082015250565b60006151a7601683613fbd565b91506151b282615171565b602082019050919050565b600060208201905081810360008301526151d68161519a565b9050919050565b60008190508160005260206000209050919050565b600081546151ff81614983565b6152098186613fbd565b94506001821660008114615224576001811461523657615269565b60ff1983168652602086019350615269565b61523f856151dd565b60005b8381101561526157815481890152600182019150602081019050615242565b808801955050505b50505092915050565b60006080820190506152876000830187613f88565b6152946020830186613f88565b81810360408301526152a681856151f2565b90506152b56060830184613f88565b95945050505050565b7f457468657220746f6f206c6f7721000000000000000000000000000000000000600082015250565b60006152f4600e83613fbd565b91506152ff826152be565b602082019050919050565b60006020820190508181036000830152615323816152e7565b9050919050565b60006153368285614f02565b91506153428284614f02565b91508190509392505050565b7f4f776e61626c653a206e6577206f776e657220697320746865207a65726f206160008201527f6464726573730000000000000000000000000000000000000000000000000000602082015250565b60006153aa602683613fbd565b91506153b58261534e565b604082019050919050565b600060208201905081810360008301526153d98161539d565b9050919050565b7f4552433732313a207472616e736665722066726f6d20696e636f72726563742060008201527f6f776e6572000000000000000000000000000000000000000000000000000000602082015250565b600061543c602583613fbd565b9150615447826153e0565b604082019050919050565b6000602082019050818103600083015261546b8161542f565b9050919050565b7f4552433732313a207472616e7366657220746f20746865207a65726f2061646460008201527f7265737300000000000000000000000000000000000000000000000000000000602082015250565b60006154ce602483613fbd565b91506154d982615472565b604082019050919050565b600060208201905081810360008301526154fd816154c1565b9050919050565b7f4f776e61626c653a2063616c6c6572206973206e6f7420746865206f776e6572600082015250565b600061553a602083613fbd565b915061554582615504565b602082019050919050565b600060208201905081810360008301526155698161552d565b9050919050565b600081905092915050565b50565b600061558b600083615570565b91506155968261557b565b600082019050919050565b60006155ac8261557e565b9150819050919050565b7f5061796d656e74206661696c6564000000000000000000000000000000000000600082015250565b60006155ec600e83613fbd565b91506155f7826155b6565b602082019050919050565b6000602082019050818103600083015261561b816155df565b9050919050565b7f4552433732313a20617070726f766520746f2063616c6c657200000000000000600082015250565b6000615658601983613fbd565b915061566382615622565b602082019050919050565b600060208201905081810360008301526156878161564b565b9050919050565b7f4552433732313a207472616e7366657220746f206e6f6e20455243373231526560008201527f63656976657220696d706c656d656e7465720000000000000000000000000000602082015250565b60006156ea603283613fbd565b91506156f58261568e565b604082019050919050565b60006020820190508181036000830152615719816156dd565b9050919050565b7f455243373231456e756d657261626c653a20636f6e736563757469766520747260008201527f616e7366657273206e6f7420737570706f727465640000000000000000000000602082015250565b600061577c603583613fbd565b915061578782615720565b604082019050919050565b600060208201905081810360008301526157ab8161576f565b9050919050565b600081519050919050565b600082825260208201905092915050565b60006157d9826157b2565b6157e381856157bd565b93506157f3818560208601613fce565b6157fc81614001565b840191505092915050565b600060808201905061581c60008301876140f8565b61582960208301866140f8565b6158366040830185613f88565b818103606083015261584881846157ce565b905095945050505050565b60008151905061586281613eef565b92915050565b60006020828403121561587e5761587d613eb9565b5b600061588c84828501615853565b91505092915050565b7f4e487b7100000000000000000000000000000000000000000000000000000000600052603160045260246000fd5b7f4552433732313a206d696e7420746f20746865207a65726f2061646472657373600082015250565b60006158fa602083613fbd565b9150615905826158c4565b602082019050919050565b60006020820190508181036000830152615929816158ed565b9050919050565b7f4552433732313a20746f6b656e20616c7265616479206d696e74656400000000600082015250565b6000615966601c83613fbd565b915061597182615930565b602082019050919050565b6000602082019050818103600083015261599581615959565b905091905056fea2646970667358221220f44b5e5e74741ecf0177bb006a09a998d465fa0836bc6c63cb6283c2876e1c6864736f6c634300080b0033",
  "immutableReferences": {},
  "source": "// SPDX-License-Identifier: MIT\r\npragma solidity >=0.7.0 <0.9.0;\r\n\r\nimport \"@openzeppelin/contracts/token/ERC721/extensions/ERC721Enumerable.sol\";\r\nimport \"@openzeppelin/contracts/access/Ownable.sol\";\r\n\r\ncontract TimelessNFT is ERC721Enumerable, Ownable {\r\n    using Strings for uint256;\r\n    mapping(string => uint8) private existingURIs;\r\n    mapping(uint256 => address) public holderOf;\r\n\r\n    address public artist;\r\n    uint256 public royaltyFee;\r\n    uint256 public supply = 0;\r\n    uint256 public totalTx = 0;\r\n    uint256 public cost = 0.01 ether;\r\n\r\n    event Sale(\r\n        uint256 id,\r\n        address indexed owner,\r\n        uint256 cost,\r\n        string metadataURI,\r\n        uint256 timestamp\r\n    );\r\n\r\n    struct TransactionStruct {\r\n        uint256 id;\r\n        address owner;\r\n        uint256 cost;\r\n        string title;\r\n        string description;\r\n        string metadataURI;\r\n        uint256 timestamp;\r\n    }\r\n\r\n    TransactionStruct[] public transactions;\r\n    TransactionStruct[] public minted;\r\n\r\n    constructor(\r\n        string memory _name,\r\n        string memory _symbol,\r\n        uint256 _royaltyFee,\r\n        address _artist\r\n    ) ERC721(_name, _symbol) {\r\n        royaltyFee = _royaltyFee;\r\n        artist = _artist;\r\n    }\r\n\r\n    function payToMint(\r\n        string memory title,\r\n        string memory description,\r\n        string memory metadataURI,\r\n        uint256 salesPrice\r\n    ) external payable {\r\n        require(msg.value >= cost, \"Ether too low for minting!\");\r\n        require(existingURIs[metadataURI] == 0, \"This NFT is already minted!\");\r\n\r\n        uint256 royalty = (msg.value * royaltyFee) / 100;\r\n        _payTo(artist, royalty);\r\n        _payTo(owner(), (msg.value - royalty));\r\n\r\n        supply++;\r\n\r\n        minted.push(\r\n            TransactionStruct(\r\n                supply,\r\n                msg.sender,\r\n                salesPrice,\r\n                title,\r\n                description,\r\n                metadataURI,\r\n                block.timestamp\r\n            )\r\n        );\r\n\r\n        emit Sale(\r\n            supply,\r\n            msg.sender,\r\n            msg.value,\r\n            metadataURI,\r\n            block.timestamp\r\n        );\r\n\r\n        _safeMint(msg.sender, supply);\r\n        existingURIs[metadataURI] = 1;\r\n        holderOf[supply] = msg.sender;\r\n    }\r\n\r\n    function payToBuy(uint256 id) external payable {\r\n        require(id > 0 && id <= minted.length, \"NFT does not exist\");\r\n        require(msg.value >= minted[id - 1].cost, \"Ether too low for purchase!\");\r\n        require(msg.sender != minted[id - 1].owner, \"Operation Not Allowed!\");\r\n\r\n        uint256 royalty = (msg.value * royaltyFee) / 100;\r\n        _payTo(artist, royalty);\r\n        _payTo(minted[id - 1].owner, (msg.value - royalty));\r\n\r\n        totalTx++;\r\n\r\n        transactions.push(\r\n            TransactionStruct(\r\n                totalTx,\r\n                msg.sender,\r\n                msg.value,\r\n                minted[id - 1].title,\r\n                minted[id - 1].description,\r\n                minted[id - 1].metadataURI,\r\n                block.timestamp\r\n            )\r\n        );\r\n\r\n        emit Sale(\r\n            totalTx,\r\n            msg.sender,\r\n            msg.value,\r\n            minted[id - 1].metadataURI,\r\n            block.timestamp\r\n        );\r\n\r\n        // Transfer ownership of the NFT\r\n        _transfer(minted[id - 1].owner, msg.sender, id);\r\n        minted[id - 1].owner = msg.sender;\r\n    }\r\n\r\n    function changePrice(uint256 id, uint256 newPrice) external returns (bool) {\r\n        require(newPrice > 0 ether, \"Ether too low!\");\r\n        require(id > 0 && id <= minted.length, \"NFT does not exist\");\r\n        require(msg.sender == minted[id - 1].owner, \"Operation Not Allowed!\");\r\n\r\n        minted[id - 1].cost = newPrice;\r\n        return true;\r\n    }\r\n\r\n    function _payTo(address to, uint256 amount) internal {\r\n        (bool success, ) = payable(to).call{value: amount}(\"\");\r\n        require(success, \"Payment failed\");\r\n    }\r\n\r\n    function getAllNFTs() external view returns (TransactionStruct[] memory) {\r\n        return minted;\r\n    }\r\n\r\n    function getNFT(uint256 id) external view returns (TransactionStruct memory) {\r\n        require(id > 0 && id <= minted.length, \"NFT does not exist\");\r\n        return minted[id - 1];\r\n    }\r\n\r\n    function getAllTransactions() external view returns (TransactionStruct[] memory) {\r\n        return transactions;\r\n    }\r\n}\r\n",
  "sourcePath": "C:\\Users\\navee\\OneDrive\\Desktop\\nft_marketplace\\nft_marketplace\\src\\contracts\\graywolfNFT.sol",
  "compiler": {
    "name": "solc",
    "version": "0.8.11+commit.d7f03943.Emscripten.clang"
  },
  "schemaVersion": "3.4.16",
  "updatedAt": "2024-08-11T13:45:49.855Z",
  "networkType": "ethereum",
  "devdoc": {
    "kind": "dev",
    "methods": {
      "approve(address,uint256)": {
        "details": "See {IERC721-approve}."
      },
      "balanceOf(address)": {
        "details": "See {IERC721-balanceOf}."
      },
      "getApproved(uint256)": {
        "details": "See {IERC721-getApproved}."
      },
      "isApprovedForAll(address,address)": {
        "details": "See {IERC721-isApprovedForAll}."
      },
      "name()": {
        "details": "See {IERC721Metadata-name}."
      },
      "owner()": {
        "details": "Returns the address of the current owner."
      },
      "ownerOf(uint256)": {
        "details": "See {IERC721-ownerOf}."
      },
      "renounceOwnership()": {
        "details": "Leaves the contract without owner. It will not be possible to call `onlyOwner` functions. Can only be called by the current owner. NOTE: Renouncing ownership will leave the contract without an owner, thereby disabling any functionality that is only available to the owner."
      },
      "safeTransferFrom(address,address,uint256)": {
        "details": "See {IERC721-safeTransferFrom}."
      },
      "safeTransferFrom(address,address,uint256,bytes)": {
        "details": "See {IERC721-safeTransferFrom}."
      },
      "setApprovalForAll(address,bool)": {
        "details": "See {IERC721-setApprovalForAll}."
      },
      "supportsInterface(bytes4)": {
        "details": "See {IERC165-supportsInterface}."
      },
      "symbol()": {
        "details": "See {IERC721Metadata-symbol}."
      },
      "tokenByIndex(uint256)": {
        "details": "See {IERC721Enumerable-tokenByIndex}."
      },
      "tokenOfOwnerByIndex(address,uint256)": {
        "details": "See {IERC721Enumerable-tokenOfOwnerByIndex}."
      },
      "tokenURI(uint256)": {
        "details": "See {IERC721Metadata-tokenURI}."
      },
      "totalSupply()": {
        "details": "See {IERC721Enumerable-totalSupply}."
      },
      "transferFrom(address,address,uint256)": {
        "details": "See {IERC721-transferFrom}."
      },
      "transferOwnership(address)": {
        "details": "Transfers ownership of the contract to a new account (`newOwner`). Can only be called by the current owner."
      }
    },
    "version": 1
  },
  "userdoc": {
    "kind": "user",
    "methods": {},
    "version": 1
  }
}